:020000040800F2
:10000000000005206DF500081B2D00081D2D0008BF
:100010001F2D0008212D0008232D000800000000DE
:10002000000000000000000000000000252D000876
:10003000272D000800000000292D00082B2D0008A6
:10004000BDF50008BDF50008BDF50008BDF50008C8
:10005000BDF50008BDF50008BDF50008BDF50008B8
:10006000BDF50008BDF50008BDF50008BDF50008A8
:10007000BDF50008BDF50008BDF50008352D0008E8
:10008000BDF50008BDF50008BDF50008BDF5000888
:10009000BDF50008BDF50008BDF50008BDF5000878
:1000A000452D0008BDF50008BDF50008BDF50008A8
:1000B000BDF50008BDF50008BDF50008BDF5000858
:1000C000BDF50008BDF50008BDF50008BDF5000848
:1000D000BDF50008BDF50008BDF50008BDF5000838
:1000E000BDF50008BDF50008BDF50008BDF5000828
:1000F000BDF500085D2D0008BDF50008BDF5000840
:10010000BDF50008BDF50008BDF50008BDF5000807
:10011000BDF50008BDF500086D2D0008BDF500080F
:10012000BDF50008BDF50008BDF50008BDF50008E7
:10013000BDF50008BDF50008BDF50008BDF50008D7
:10014000BDF50008BDF50008BDF500087D2D0008CF
:10015000BDF500088D2D0008BDF50008BDF50008AF
:10016000BDF50008BDF50008BDF50008BDF50008A7
:10017000BDF50008BDF50008BDF500080000000051
:10018000BDF50008BDF50008BDF50008BDF5000887
:10019000BDF50008BDF50008BDF50008BDF5000877
:1001A000BDF50008BDF50008BDF50008BDF5000867
:1001B000BDF50008BDF50008BDF50008BDF5000857
:0801C000BDF50008BDF50008C3
:1001D00001F0FF01102A2BDB10F0070F08D010F8F8
:1001E000013B013A8B422DD010F0070F42B3F6D1FC
:1001F000F0B441EA012141EA014122F007047FF015
:1002000000070023F0E80256083C85EA010586EA6B
:10021000010685FA47F5A3FA87F586FA47F6A5FAA7
:1002200087F68EB9EED1F0BC01F0FF0102F00702B3
:1002300032B110F8013B013A83EA010313B1F8D15E
:100240000020704701387047002D06BF354603383F
:10025000073815F0010F07D1013015F4807F02BF78
:10026000013015F4C03F0130F0BC0138704700BFC9
:1002700081F0004102E000BF83F0004330B54FEA57
:1002800041044FEA430594EA050F08BF90EA020FC4
:100290001FBF54EA000C55EA020C7FEA645C7FEA57
:1002A000655C00F0E2804FEA5454D4EB5555B8BF7A
:1002B0006D420CDD2C4480EA020281EA030382EAEB
:1002C000000083EA010180EA020281EA0303362D7D
:1002D00088BF30BD11F0004F4FEA01314FF4801C50
:1002E0004CEA113102D0404261EB410113F0004F62
:1002F0004FEA03334CEA133302D0524263EB430319
:1003000094EA050F00F0A780A4F10104D5F1200EB6
:100310000DDB02FA0EFC22FA05F2801841F1000111
:1003200003FA0EF2801843FA05F359410EE0A5F1E5
:1003300020050EF1200E012A03FA0EFC28BF4CF016
:10034000020C43FA05F3C01851EBE37101F00045CC
:1003500007D54FF0000EDCF1000C7EEB00006EEBD9
:100360000101B1F5801F1BD3B1F5001F0CD3490863
:100370005FEA30004FEA3C0C04F101044FEA4452BA
:1003800012F5800F80F09A80BCF1004F08BF5FEA41
:10039000500C50F1000041EB045141EA050130BD21
:1003A0005FEA4C0C404141EB010111F4801FA4F1C4
:1003B0000104E9D191F0000F04BF01460020B1FA19
:1003C00081F308BF2033A3F10B03B3F120020CDA51
:1003D0000C3208DD02F1140CC2F10C0201FA0CF02F
:1003E00021FA02F10CE002F11402D8BFC2F1200C94
:1003F00001FA02F120FA0CFCDCBF41EA0C0190404A
:10040000E41AA2BF01EB0451294330BD6FEA040492
:100410001F3C1CDA0C340EDC04F11404C4F120027D
:1004200020FA04F001FA02F340EA030021FA04F38F
:1004300045EA030130BDC4F10C04C4F1200220FAE6
:1004400002F001FA04F340EA0300294630BD21FA24
:1004500004F0294630BD94F0000F83F4801306BFEA
:1004600081F480110134013D4EE77FEA645C18BFDE
:100470007FEA655C29D094EA050F08BF90EA020F75
:1004800005D054EA000C04BF1946104630BD91EA6D
:10049000030F1EBF0021002030BD5FEA545C05D170
:1004A0004000494128BF41F0004130BD14F58004AF
:1004B0003CBF01F5801130BD01F0004545F0FE4123
:1004C00041F470014FF0000030BD7FEA645C1ABF58
:1004D000194610467FEA655C1CBF0B46024650EA8F
:1004E000013406BF52EA033591EA030F41F40021BB
:1004F00030BD00BF90F0000F04BF0021704730B541
:100500004FF4806404F132044FF000054FF0000115
:1005100050E700BF90F0000F04BF0021704730B5D6
:100520004FF4806404F1320410F0004548BF4042AB
:100530004FF000013EE700BF42004FEAE2014FEA00
:1005400031014FEA02701FBF12F07F4393F07F4FDB
:1005500081F06051704732F07F4208BF704793F0DE
:100560007F4F04BF41F40021704730B54FF46074F1
:1005700001F0004521F000411CE700BF50EA0102F4
:1005800008BF704730B54FF000050AE050EA01029D
:1005900008BF704730B511F0004502D5404261EB0D
:1005A00041014FF4806404F132045FEA915C3FF44E
:1005B000D8AE4FF003025FEADC0C18BF03325FEAEB
:1005C000DC0C18BF033202EBDC02C2F1200300FA9C
:1005D00003FC20FA02F001FA03FE40EA0E0021FAC1
:1005E00002F11444BDE600BF70B54FF0FF0C4CF4AF
:1005F000E06C1CEA11541DBF1CEA135594EA0C0F61
:1006000095EA0C0F00F0DEF82C4481EA030621EA9B
:100610004C5123EA4C5350EA013518BF52EA0335D6
:1006200041F4801143F4801338D0A0FB02CE4FF088
:100630000005E1FB02E506F00042E0FB03E54FF0B8
:100640000006E1FB03569CF0000F18BF4EF0010EB0
:10065000A4F1FF04B6F5007F64F5407404D25FEAAC
:100660004E0E6D4146EB060642EAC62141EA55515F
:100670004FEAC52040EA5E504FEACE2EB4F1FD0CA1
:1006800088BFBCF5E06F1ED8BEF1004F08BF5FEA1F
:10069000500E50F1000041EB045170BD06F00046D1
:1006A00046EA010140EA020081EA0301B4EB5C047E
:1006B000C2BFD4EB0C0541EA045170BD41F4801176
:1006C0004FF0000E013C00F3AB8014F1360FDEBF9B
:1006D000002001F0004170BDC4F10004203C35DA77
:1006E0000C341BDC04F11404C4F1200500FA05F3FA
:1006F00020FA04F001FA05F240EA020001F000429B
:1007000021F0004110EBD37021FA04F642EB060110
:100710005EEA430E08BF20EAD37070BDC4F10C043A
:10072000C4F1200500FA04F320FA05F001FA04F2FE
:1007300040EA020001F0004110EBD37041F10001EA
:100740005EEA430E08BF20EAD37070BDC4F12005F5
:1007500000FA05F24EEA020E20FA04F301FA05F25D
:1007600043EA020321FA04F001F0004121FA04F205
:1007700020EA020000EBD3705EEA430E08BF20EAD5
:10078000D37070BD94F0000F0FD101F0004640000F
:1007900041EB010111F4801F08BF013CF7D041EA91
:1007A000060195F0000F18BF704703F00046520095
:1007B00043EB030313F4801F08BF013DF7D043EA66
:1007C0000603704794EA0C0F0CEA135518BF95EA1C
:1007D0000C0F0CD050EA410618BF52EA4306D1D1A3
:1007E00081EA030101F000414FF0000070BD50EAC2
:1007F000410606BF1046194652EA430619D094EA4C
:100800000C0F02D150EA013613D195EA0C0F05D135
:1008100052EA03361CBF104619460AD181EA030189
:1008200001F0004141F0FE4141F470014FF0000041
:1008300070BD41F0FE4141F4780170BD70B54FF0DC
:10084000FF0C4CF4E06C1CEA11541DBF1CEA13555C
:1008500094EA0C0F95EA0C0F00F0A7F8A4EB05043E
:1008600081EA030E52EA03354FEA013100F0888035
:100870004FEA03334FF0805545EA131343EA1263FE
:100880004FEA022245EA111545EA10654FEA0026B3
:100890000EF000419D4208BF964244F1FD0404F56C
:1008A000407402D25B084FEA3202B61A65EB0305C8
:1008B0005B084FEA32024FF480104FF4002CB6EB85
:1008C000020E75EB030E22BFB61A754640EA0C0005
:1008D0005B084FEA3202B6EB020E75EB030E22BF45
:1008E000B61A754640EA5C005B084FEA3202B6EB86
:1008F000020E75EB030E22BFB61A754640EA9C0045
:100900005B084FEA3202B6EB020E75EB030E22BF14
:10091000B61A754640EADC0055EA060E18D04FEAD2
:10092000051545EA16754FEA06164FEAC30343EA72
:1009300052734FEAC2025FEA1C1CC0D111F4801F3F
:100940000BD141EA00014FF000004FF0004CB6E738
:1009500011F4801F04BF01430020B4F1FD0C88BFD7
:10096000BCF5E06F3FF6AFAEB5EB030C04BFB6EBE2
:10097000020C5FEA500C50F1000041EB045170BDD5
:100980000EF0004E4EEA113114EB5C04C2BFD4EB02
:100990000C0541EA045170BD41F480114FF0000E86
:1009A000013C90E645EA060E8DE60CEA135594EA02
:1009B0000C0F08BF95EA0C0F3FF43BAF94EA0C0F05
:1009C0000AD150EA01347FF434AF95EA0C0F7FF47A
:1009D00025AF104619462CE795EA0C0F06D152EACE
:1009E00003353FF4FDAE1046194622E750EA4106B2
:1009F00018BF52EA43067FF4C5AE50EA41047FF4C3
:100A00000DAF52EA43057FF4EBAE12E74A0011D274
:100A100012F5001211D20DD56FF47873B3EB625258
:100A20000ED44FEAC12343F0004343EA505323FA64
:100A300002F070474FF00000704750EA013002D1D9
:100A40004FF0FF3070474FF00000704753B94AB97C
:100A5000002908BF00281CBF4FF0FF314FF0FF30C6
:100A600000F00CB8ADF1080C6DE904CE0FF054FFA6
:100A7000DDF804E0DDE9022304B07047704700BFF1
:100A800010B5054C227832B9044B13B10448AFF3CA
:100A900000800123237010BDEC0100200000000045
:100AA000CC0B010808B5034B1BB103490348AFF356
:100AB000008008BD00000000F0010020CC0B010800
:100AC0002DE9F04100273D464FF0020C41E005EBD7
:100AD000850319012144C7EB0712130104EB4402FB
:100AE000134403EB8C03DFF894E01EF8018030011F
:100AF000801B82011F48024402F8038001F10108B3
:100B0000581C1EF8088002F8008001F10208981CA9
:100B10001EF8088002F80080033103331EF801102C
:100B2000D15404344F2CD2DD013515F0070F04D118
:100B3000BCF1000F18D00CF1FF3C0F4A82FB0532CC
:100B4000EB17C3EBA20303EB4303DA00954200D19A
:100B500001375F2D0BDC6B4205F0070603F007033E
:100B600058BF5E420024DDE74FF0020CE5E7BDE828
:100B7000F08100BF24020020ABAAAA2A282000206E
:100B80000022444B1B78934200F082800023082B04
:100B90007CD0F0B46FE0012110E001285BD001347B
:100BA000F02C65D0A000C3EB03118D013A49294414
:100BB00011F82450B2EB151FEDDB002105F00F05F5
:100BC000954201DD41F00201451CC3EB0316B7015C
:100BD000314E3E44755DB2EB151F01DA41F0040160
:100BE00005F00F05954201DD41F00801851CC3EBBE
:100BF0000316B701284E3E44755DB2EB151F01DAAE
:100C000041F0100105F00F05954201DD41F0200192
:100C10000330C3EB0315AE011F4D3544285CB2EB26
:100C2000101F01DA41F0400100F00F00904201DD99
:100C300041F08001194800780028AED1C2EB0215BE
:100C4000E801C3EB031635012844F030001B0138DE
:100C5000134D2954A3E7C2EB0215E801C3EB0316B9
:100C600035012844F030001B01380E4D295496E719
:100C70000133082B01D0002492E70132054B1B7889
:100C8000934201D00023F4E7F0BC7047013278E7CB
:100C9000704700BF13000020240200201302002030
:100CA000303E002030B60020014B00221A70704701
:100CB000100000202DE9F04F91B0AD4B1A6B42F0BF
:100CC00010021A631A6B02F010020092009A1A6B5B
:100CD00042F040021A631A6B02F040020192019A3C
:100CE0001A6B42F002021A631A6B02F002020292BD
:100CF000029A1A6B42F008021A631A6B02F0080299
:100D00000392039A1A6B42F004021A631A6B02F000
:100D100004020492049A1A6B42F001021A631A6BDD
:100D200002F001020592059A1A6B42F400721A63EE
:100D30001A6B02F400720692069A1A6B42F48072E1
:100D40001A631A6B02F480720792079A1A6B42F4C4
:100D500080621A631A6B02F480620892089A1A6B16
:100D600042F020021A631A6B02F020020992099ADB
:100D70001A6B42F080021A631B6B03F080030A9324
:100D80000A9B002244F210017A4806F0DDF80022A6
:100D90004FF40041784806F0D7F801222021774827
:100DA00006F0D2F800220D21754806F0CDF8012298
:100DB0000821744806F0C8F801224FF480517048A9
:100DC00006F0C2F800224FF401516F4806F0BCF85B
:100DD00001224FF48071684806F0B6F80022C8215D
:100DE0006A4806F0B1F800224FF4A061684806F0A6
:100DF000ABF810230B9302250C9500240D940E9450
:100E00000E230F93DFF898A10BA9504605F0ACFF15
:100E100008230B930C940D940BA9504605F0A4FFE6
:100E20004FF0040BCDF82CB00C950D9403260E96C4
:100E300009230F930BA9504605F096FF4FF440731A
:100E40000B9312230C9301270D970E94CDF83CB011
:100E50000BA9484805F088FF43F623430B930C95F4
:100E60000D940E964FF00A08CDF83C800BA941482E
:100E700005F07AFF44F210030B930C970D940E9437
:100E80000BA93C4805F070FF80230B930C950D9443
:100E90000E9408230F930BA9384805F065FF4FF413
:100EA000F8530B930C950D940E960C230F930BA9EE
:100EB000384805F059FF4FF401430B930C970D94FC
:100EC0000E940BA92C4805F04FFF60230B930C9553
:100ED0000D940E944FF00D09CDF83C900BA950469F
:100EE00005F042FF40230B930C950D940E96CDF820
:100EF0003C800BA91F4805F037FF4EF6FF730B939C
:100F00000C950D940E940E230F930BA9224805F017
:100F10002BFF4FF4805ACDF82CA00C940D940BA904
:100F20001D4805F021FF40230B931C4B0C930D949F
:100F30000BA9124805F018FFF0230B930C950D94A4
:100F40000E94CDF83C800BA90D4805F00DFFF7235A
:100F50000B930C950D940E940E220F920BA9094839
:100F600005F002FFCDF82CA00C950D941AE000BFFF
:100F7000003802400004024000000240000C024021
:100F80000020024000280240001C024000180240DD
:100F90000014024000080240002402400000121029
:100FA000001002400E9409220F920BA9874805F009
:100FB000DBFE4FF480630B930C950D940E94CDF8EB
:100FC0003C800BA9814805F0CFFE20230B930C97A2
:100FD0000D940E940BA97E4805F0C6FE08220B92D4
:100FE0000C950D940E94CDF83C900BA9784805F023
:100FF000BBFE41F20D030B930C970D940E940BA9BD
:10100000744805F0B1FE4FF4005ACDF82CA00C94B2
:101010000D940BA9704805F0A7FE4FF446430B93BF
:101020000C950D940E940E220F920BA9694805F0B1
:101030009BFE08220B920C970D940E940BA9674807
:1010400005F092FE4FF400730B930C950D940E94E3
:10105000CDF83C900BA95D4805F086FE10220B925E
:101060000C940D940BA95A4805F07EFECDF82CB0D7
:101070000C950D940E960C220F920BA9544805F076
:1010800073FE48F204030B930C940D940BA954487F
:1010900005F06AFE4FF401530B930C970D940E94D8
:1010A0000BA94F4805F060FE4FF4BC430B930C9521
:1010B0000D940E94CDF83C900BA9494805F054FED0
:1010C000CDF82CA0474B0C930D940BA9414805F08B
:1010D0004BFE10230B930C950D940E96CDF83C808F
:1010E0000BA93F4805F040FEC8230B930C970D94C5
:1010F0000E940BA9354805F037FE40230B930C9650
:101100000D940BA9384805F02FFE4FF4A0630B9304
:101110000C970D940E940BA9334805F025FE05237A
:101120000B930C950D940E96CDF83C800BA92A4894
:1011300005F01AFECDF82CB00C950D940E960923EF
:101140000F930BA9294805F00FFE4FF460530B9342
:101150000C950D940E9609230F930BA91C4805F0CE
:1011600003FECDF82CB00C940D940BA9174805F094
:10117000FBFD0B970C960D940BA91D4805F0F4FD93
:1011800050230B930C950D940E94CDF83C900BA925
:10119000174805F0E9FD4FF4C0730B9312230C932D
:1011A0000D970E96CDF83CB00BA90D4805F0DCFD6F
:1011B00028230B930C950D940E96CDF83C800BA92B
:1011C0000B4805F0D1FD11B0BDE8F08F00180240CA
:1011D000000C0240002002400008024000280240AB
:1011E000001C0240000012100014024000040240E3
:1011F00000000240F8B507F0C5FA344B186000282B
:1012000030D0334D334C0FCC28606960AA60EB605E
:1012100040F2D44230492D4B186806F0ABFB10F178
:10122000080F29D010F1060F2DD000283CD0274CF4
:10123000FF21206806F062FC206000283BD0274D8B
:10124000274C0FCC28606960AA60EB602068286199
:10125000A288A379AA82AB7522491C4B186806F0B4
:101260003FFDF8BD1A4A204B03CB1060516019882E
:101270009B7811819372F4E740F2D4421B491C48D9
:101280000EF044FBEDE71B4E194D06F120073446E6
:101290000FCC28606960AA60EB6026461035BC421E
:1012A000F5D123882B80DCE740F2D4421249104864
:1012B0000EF02CFBBBE7094D104C0FCC2860696089
:1012C000AA60EB6023882B82CBE700BF8C3401201F
:1012D000E4310120780C0108502401084C30012031
:1012E000000D0108011300086C0C0108880C0108AE
:1012F000343D0120A00C0108C40C0108EC0C0108CD
:1013000010B50C467F21204606F085FC0749204693
:1013100006F09AFC0021204606F0C8FC0122044990
:10132000204606F0E5FC002010BD00BFCD160008E9
:101330006D13000838B505460A4BFF221A700024C9
:10134000094B1C60214606F07CFC2146284606F02D
:1013500095FC2146284606F077FC284607F004F85D
:1013600038BD00BF11000020442E012008B5084BF5
:101370001A6801321A601B68092B01D8002008BDC9
:1013800008460449FFF7D6FF014B00221A60F5E733
:10139000442E01200C0C010870B50024294B1C7050
:1013A000294B1C70294B1C70294B1C70294E22465E
:1013B0004FF48041304605F0C7FD274D22464021BD
:1013C000284605F0C1FD22461021304605F0BCFD3F
:1013D00022468021284605F0B7FD05F50065224626
:1013E0000121284605F0B0FD224640211B4805F0AA
:1013F000ABFD22460821284605F0A6FD2246042121
:10140000284605F0A1FD22464FF40041144805F09E
:101410009BFD4FF4F0552A46214612480EF020F964
:101420002A46214610480EF01BF94FF4F0452A4693
:1014300021460E480EF014F92A4621460C480EF0BB
:101440000FF970BD110200201002002012020020CE
:10145000130200200004024000180240001C024059
:10146000000002402820002024020020303E0020FE
:1014700030B6002008B5054B01221A700023044A3B
:101480001360044A1360FFF787FF08BD10000020B7
:10149000040000200800002010B50446844B1B788F
:1014A000162B00F2FE80DFE813F0170031003D003C
:1014B0004900550061006900FC00FC00FC0074005C
:1014C00080008C009800B700C700FC00FC00FC0006
:1014D000FC00D500E100ED00732808D064280BD093
:1014E0006D280ED0724B00221A70FF2057E0704B0F
:1014F00001221A70FF2052E06D4B14221A70FF2057
:101500004DE06B4B0A221A70FF2048E0742804D08B
:10151000674B00221A70FF2041E0654B02221A70CF
:10152000FF203CE0612804D0614B00221A70FF20AC
:1015300035E05F4B03221A70FF2030E0722804D0A0
:101540005B4B00221A70FF2029E0594B04221A70CD
:10155000FF2024E0742804D0554B00221A70FF208D
:101560001DE0534B05221A70FF2018E0504B062255
:101570001A7004024F4B1C60FF2010E04C4B0022FD
:101580001A704C4A136803431360B3F5F05F40F2DE
:101590008D806F2C04D0464B00221A70FF2010BDA6
:1015A000434B0B221A70FF20F9E7642804D0404B0C
:1015B00000221A70FF20F2E73D4B0C221A70FF2028
:1015C000EDE7652804D03A4B00221A70FF20E6E7C9
:1015D000374B0D221A70FF20E1E7C0B1364B18706F
:1015E00007EE900AF8EE677A17EE900AFEF7A4FF6E
:1015F00002460B4600203149FFF720F9FFF706FAB3
:101600002F4B18602A4B0E221A70FF20C7E7284B79
:1016100000221A70FF20C2E7431EDBB20F2B06D850
:10162000284B1870224B0F221A70FF20B7E7204B6F
:1016300000221A70FF20B2E7012804D91C4B0022B7
:101640001A70FF20ABE7204B1870194B00221A705C
:10165000FF20A4E76D2804D0154B00221A70FF204C
:101660009DE7134B15221A70FF2098E7612804D0DC
:101670000F4B00221A70FF2091E70D4B16221A70B3
:10168000FF208CE7302806D0312C07D0084B0022F1
:101690001A70FF2083E7FFF7EDFEF5E7FFF704FB85
:1016A000F4E7034B00221A70FF2078E7FE2076E76C
:1016B000482E0120242000200100002000408F40FF
:1016C0002C3E002013000020120000202DE9F04FD6
:1016D00083B00191904622B1002B79D1B2F808B0C5
:1016E00063E042490198FFF725FE404609F0AEFD50
:1016F0003F4B00221A6067E03E4B1B78FE2B13D055
:10170000A5424AD93B4B1B78FF2BF5D1A542F3D913
:10171000305DFFF7C1FE374B18700134FE28F5D15C
:10172000354B00221A60E7E72B1B344A1360324A1C
:1017300017683B44324AD2F800A0534503D9AAEBBC
:1017400007032E4A13602D4BD3F800904A463119F7
:101750002C4838440DF076FF4F44274B1F604C4413
:10176000BA45CDD8234BFF221A700023224A1360BA
:10177000224A1360FFF798FA234B1B68002BFBD01B
:10178000224B01221A600023214A13601E4A136073
:10179000FFF796F9FFF7F4F9B2E7B8F80820B8F8C0
:1017A0000A309A4209D9D8F80080B8F80A50D8F817
:1017B00004600024174B1C60A2E75946019806F00C
:1017C000D1F9404609F042FD002003B0BDE8F08F9A
:1017D00011490198FFF7AEFD404609F037FD00239F
:1017E000034A13600D4A1360EEE700BF200C0108A6
:1017F0001402002011000020080200200C0200202A
:1018000024200020282000200C00002008000020B8
:1018100018020020442E0120440C0108040000207E
:1018200010B505F043FE094C2368C01AFEF762FEAE
:1018300002460B4600200649FFF700F8FFF7E6F8DE
:10184000044B186005F032FE206010BD402E0120D0
:1018500000408F40302E012010B505F027FE094CC6
:101860002368C01AFEF746FE02460B4600200649D2
:10187000FEF7E4FFFFF7CAF8044B186005F016FE08
:10188000206010BD3C2E012000408F40200200202F
:10189000704700002DE9F04704460268A54B9A42C4
:1018A00009D02268A34B9A4215D02268A24B9A42D3
:1018B00014D0BDE8F087A14B1A6801321A601A688B
:1018C0009F4B1B689A42ECD39C4B00221A609D4BA5
:1018D00001221A60E5E705F0DDFDE6E79A4B0122FB
:1018E0001A709A4B1B78002BE3D1994B00221A6097
:1018F000984803F0B3FE984803F0B0FE974B1B786E
:1019000013B3914B00221A70944B1A784FF48071E4
:10191000934805F019FB934B1B78012B00F0D980FD
:10192000002B00F03D81904B1B78002B00F068816C
:101930008A4A13780133DBB21370012B40F26381C2
:10194000134600221A705EE1884E00224021304684
:1019500005F0FAFA864F00221021384605F0F4FA15
:1019600000228021304605F0EFFA824D002201214D
:10197000284605F0E9FADFF8209200224021484687
:1019800005F0E2FA00220821284605F0DDFA0022DF
:101990000421284605F0D8FADFF8008200224FF42F
:1019A0000041404605F0D0FADFF8B0A19AF80020D7
:1019B0006B4CB2FA82F252094FF48071204605F066
:1019C000C3FA01224FF48041384605F0BDFA9AF877
:1019D00000204FF48071204605F0B6FA00224FF443
:1019E0008041384605F0B0FA634C2278B2FA82F2B0
:1019F00052094021304605F0A7FA2278012A14BF87
:101A0000002201221021384605F09EFA2278022A8F
:101A100014BF002201228021304605F095FA227879
:101A2000032A14BF002201220121284605F08CFA66
:101A30002278042A14BF002201224021484605F0E2
:101A400083FA2278052A14BF0022012208212846A1
:101A500005F07AFA2278062A14BF00220122042116
:101A6000284605F071FA2278072A14BF00220122C5
:101A70004FF40041404605F067FA23780133DBB2AA
:101A80002370072B7FF63DAF002222703B4A13786C
:101A90000133DBB213703A4A12789342FFF431AF4C
:101AA000364B00221A70FFF7BBFE364B1B68002B2B
:101AB0003FF427AF2B4A1378B3FA83F35B09137013
:101AC000FFF7CAFE2F4B00221A602F4B01221A602B
:101AD00017E72A4F3A78C2EB0212D301264E32782A
:101AE000C2EB021211010B441C4D2A78C2EB021208
:101AF000D1001944254C3C222144164803F024FD12
:101B0000234B18703A78C2EB0212D3013278C2EB41
:101B10000212110119442B78C3EB0313DA001144AC
:101B20003C313C2221440C4803F00EFD194B187047
:101B3000F9E600BF0010004000400140283E0020B0
:101B40002C3E00200C00002000000020100000208F
:101B50001C020020B03001205C3101201002002066
:101B6000001402401302002012000020001802405E
:101B70000004024000200240110200201202002056
:101B8000130000200800002018020020303E002032
:101B9000342E0120362E0120001C0240000002409D
:101BA000204F3A78C2EB0212D3011F4E3278C2EBBB
:101BB000021211010B441D4D2A78C2EB0212D10012
:101BC00019441B4C3C2221441A4803F0BDFC1A4B1B
:101BD00018703A78C2EB0212D3013278C2EB0212CB
:101BE000110119442B78C3EB0313DA0011443C3183
:101BF0003C222144114803F0A7FC114B187092E6D7
:101C00000A4B00221A700C4B1B7823B90C4A12782D
:101C1000002A3FF44EAE0B4A1370094B1A780A4B58
:101C20001A7046E612020020110200201002002065
:101C300030B60020B0300120342E01205C3101206C
:101C4000362E0120352E0120372E012008B5264CD6
:101C500000224021204605F077F900221021234878
:101C600005F072F900228021204605F06DF904F597
:101C7000006400220121204605F066F9002240217F
:101C80001B4805F061F900220821204605F05CF9A7
:101C900000220421204605F057F900224FF40041AC
:101CA000144805F051F9144D4FF4FA6632460021FC
:101CB00028460DF0D5FC114C0FCC28606960AA6055
:101CC000EB6003CC286169612288A3782A83AB7614
:101CD00042F210723146284601F00EF84FF4FA70C5
:101CE00005F0EAFBB3E700BF001802400004024021
:101CF000001C024000000240D0340120F00B01081B
:101D000000B583B0224B1A6B42F480021A631A6B3F
:101D100002F480020092009A1A6B42F400121A63D5
:101D20001B6B03F400130193019B1A481A4B0360C9
:101D300000234360802282604FF40072C2604FF43F
:101D40008062026143618361C36103620422426273
:101D500003228262C362036305F07AF990B900221C
:101D600011460F2003F04AF90F2003F079F9002201
:101D70001146452003F042F9452003F071F903B004
:101D80005DF804FB40F21F310448FFF75FFF00BF1E
:101D900000380240EC2F012070640240E40B01087F
:101DA00008B50948094B036000230371437143617F
:101DB00083610123036203F08BF900B908BD40F28F
:101DC000DF110348FFF742FFC0310120003002401D
:101DD000E40B010808B51248124B03604FF48273FC
:101DE0004360002383604FF4E062C260036101221C
:101DF00042614FF4007282610822C2618022026255
:101E0000436283620722C2620363436303F03EFBC3
:101E100000B908BD40F2F9110348FFF717FF00BFF2
:101E2000B030012000380040E40B010800B589B053
:101E30001748184B0360002343608360C36003614D
:101E40004361836103F000FE98B94FF4805304931B
:101E500004A90F4803F01EFE80B9002301930293EA
:101E6000039301A90A4803F09FFE60B909B05DF829
:101E700004FB4FF40A710848FFF7E8FE40F22E21F8
:101E80000548FFF7E3FE40F236210348FFF7DEFE88
:101E90009C33012000000140E40B010800B589B02B
:101EA00017484FF080430360002343608360C360A2
:101EB0000361836103F0C8FD90B94FF4805304932C
:101EC00004A90F4803F0E6FD78B9002301930393BA
:101ED00001A90B4803F068FE60B909B05DF804FB86
:101EE00040F24A210748FFF7B1FE4FF4147105484C
:101EF000FFF7ACFE40F257210248FFF7A7FE00BFF4
:101F000090340120E40B010800B589B01648174B46
:101F10000360002343608360C3600361836103F057
:101F200093FD90B94FF48053049304A90E4803F035
:101F3000B1FD78B900230193039301A90A4803F086
:101F400033FE60B909B05DF804FB40F26B2108482C
:101F5000FFF77CFE40F271210548FFF777FE4FF452
:101F60001E710348FFF772FE883201200004004012
:101F7000E40B010800B589B01648174B0360002335
:101F800043608360C3600361836103F05DFD90B9CA
:101F90004FF48053049304A90E4803F07BFD78B9F5
:101FA00000230193039301A90A4803F0FDFD60B9E2
:101FB00009B05DF804FB4FF423710848FFF746FEB3
:101FC00040F292210548FFF741FE40F29921034873
:101FD000FFF73CFE48320120000C0040E40B0108F2
:101FE00000B589B01748184B036000234360836035
:101FF000C36003614361836103F026FD98B94FF428
:102000008053049304A90F4803F044FD80B90023D2
:1020100001930293039301A90A4803F0C5FD60B937
:1020200009B05DF804FB40F2AE210848FFF70EFE50
:102030004FF42D710548FFF709FE4FF42F71034847
:10204000FFF704FE1C31012000040140E40B0108ED
:1020500008B50C480C4B03604FF4E1334360002398
:102060008360C36003610C2242618361C3610362C8
:10207000436204F042F800B908BD40F2EA21034887
:10208000FFF7E4FDC832012000100140E40B010815
:1020900008B50C480C4B03604FF4E1334360002358
:1020A0008360C36003610C2242618361C361036288
:1020B000436204F022F800B908BD40F2FF21034852
:1020C000FFF7C4FD1C34012000140140E40B01089B
:1020D00008B51248124B03604FF48273436000232B
:1020E00083604FF4E062C260022202610122426119
:1020F0004FF4007282611022C26180220262436248
:1021000083620722C2620363436303F0BFF900B92D
:1021100008BD40F213210348FFF798FD5C31012010
:1021200000500140E40B010800B589B01648174B78
:1021300003600023436083600421C16010220261B8
:10214000402242614FF4C0728261C3614FF4006269
:1021500002624FF48052426283620223019307229B
:102160000292039104920322059206930793694415
:1021700003F0A0F810B909B05DF804FB40F2493152
:102180000348FFF763FD00BFA03C0120400100A011
:10219000E40B010800B585B01148124B036002231F
:1021A00043600023836041F28832C260036183612F
:1021B00003F04AFC50B94FF4805300936946084835
:1021C00003F068FC38B905B05DF804FB40F2CF219C
:1021D0000548FFF73BFD40F2D5210348FFF736FDE8
:1021E000DC33012000400140E40B010800B5B5B02C
:1021F000414B1A6C42F080521A641B6C03F08053FE
:102200000093009B3D4B1A6842F440421A601B68E1
:1022100003F440430193019B012328934FF480333F
:10222000299302232E934FF480022F921922309289
:102230004FF4C872319232930923339328A803F0E4
:102240008FFF002843D105F0DBF8002844D10F238D
:10225000239302232493002325934FF4A053269322
:102260004FF480532793062123A804F0B5F90028E2
:1022700037D1234B02934FF4C0730793052309937F
:102280000223089303230A9301230C934FF4003392
:102290000D930023139318934FF00063219302A82A
:1022A00004F090FA10BB04F049FA164BA3FB00307F
:1022B000800902F0E1FE042002F0F4FE0022114643
:1022C0004FF0FF3002F09AFE35B05DF804FB40F2AB
:1022D0009F110D48FFF7BAFC4FF4D3710A48FFF77E
:1022E000B5FC4FF4DA710848FFF7B0FC4FF4E27127
:1022F0000548FFF7ABFC00BF00380240007000400B
:1023000040082000D34D6210E40B010808B505F029
:10231000B5F8FFF76BFFFEF7CDFCFFF7F1FCFFF719
:102320003FFDFFF757FDFFF781FDFFF7B7FDFFF713
:10233000EBFDFFF71FFEFFF753FEFFF789FEFFF7E8
:10234000A7FEFFF7C5FE00F05FF800F069FAFFF79F
:10235000EBFEFFF71FFF224803F013FAFFF78AF89E
:102360004FF4FA6005F0A8F81E4B5A681E4B1A602D
:10237000110ED971110C9971110A59711A711B4BF7
:102380001A784FF47A73B3FBF2F3194A136000F032
:102390006FF8FEF72FFFFEF7FFFFFEF785FC08E062
:1023A000144B00221A6011E00023134A1370134AE1
:1023B000137000F05DF80F4A136801331360104981
:1023C0000A6801320A600F4A9342E9D00A4B1B782F
:1023D000002BE9D1094B1B78002BEAD0E4E700BFC2
:1023E000DC330120983D0120143101200100002040
:1023F0002C3E0020382E0120352E0120372E0120C2
:102400001C020020404B4C0030B585B008F094FA17
:10241000114900200860114A1060114B1860114CDE
:10242000114D0295114D01950090204608F0D6FD02
:10243000204608F013FE94F82F3013F0040F07D055
:10244000204608F011FE07480CF09EF805B030BD9C
:10245000044808F01BFEF6E7CC3D0120D03D0120EA
:10246000D43D0120983D012031750008D127000896
:1024700008B5034800F09CF905F0A0F908BD00BFBD
:10248000983D01202DE9F047334801F0F5F8002888
:102490005ED1314B998FD3F8408079B94FF0000A63
:1024A0002D4B1B6B00212C4A926B8A423BD91A6838
:1024B00042F000421A60DB680131F4E70322042095
:1024C00008F028FF82460028EAD0234B1F6B814684
:1024D000002409E0D9F8040008EB040130440DF0B1
:1024E000B1F8D9F800902C46B9F1000FD8D0B9F85E
:1024F0000A200026A51840F2F4539D42EAD9D9F8E3
:10250000040040F2F452121B08EB040130440DF0B9
:1025100099F8FF68D7F80880A5F2F452361B06F246
:10252000F4560024E6E70C4B00229A631B6841F244
:1025300014029A5812F0800F07D041F21402802141
:10254000995041F20802002199505046BDE8F087A9
:102550004FF0000AF9E700BFA85601202DE9F84F17
:102560008B462C4BDE6AD6F808A000242746BBF128
:10257000000F32D03368002B35DBBBF80A90002502
:1025800004EB090840F2F453984519D9DBF804101C
:1025900040F2F452121B29440AEB04000DF052F8E9
:1025A000F6683368002B21DBD6F808A0A8F2F459AE
:1025B0002D1B05F2F4553F1B07F2F4570024DFE70B
:1025C000DBF804104A4629440AEB04000DF03AF8FF
:1025D0004F44DBF800B04446C9E739460D4800F0E7
:1025E000BBFF002004E06FF0070001E06FF0070080
:1025F000084B1B6841F214029A5812F0200F07D0C2
:1026000041F214022021995041F204020021995014
:10261000BDE8F88FA856012030B585B004460023E8
:1026200003933448344A02600122426003828DF8E9
:1026300004306D218DF8051069218DF806106B218D
:102640008DF8071075218DF808108DF8092001AA62
:1026500042618361C3614FF40003036201F0CAF871
:1026600028B994F82F3043F0040384F82F30214D1B
:102670000423224A2249284600F0FFFE0423214A6F
:102680002149284600F032FF062384F828306B6980
:102690001A7884F829205A7884F82A209A7884F8BD
:1026A0002B20DA7884F82C201A7984F82D205B7995
:1026B00084F82E3040F2DC53E38494F82F3043F05A
:1026C0000A0384F82F30284601F0BEF903AA0B2133
:1026D000284601F018F8039A42F00B0203920B21EE
:1026E000284601F04CF803AA0B21284601F00BF80C
:1026F00005B030BDA856012000800240F0560120F0
:10270000D83D0120583E0120285601200268244B64
:102710009A4200D07047F0B589B0A3F590431A6B88
:1027200042F000721A631A6B02F000720092009A73
:102730001A6B42F080621A631A6B02F08062019297
:10274000019A1A6B42F000621A631B6B03F000637C
:102750000293029B4FF4D043039302270497002671
:102760000596032506950B24079403A90D4804F04C
:10277000FBFA32230393049705960695079403A961
:10278000094804F0F1FA8623039304970596069509
:10279000079403A9054804F0E7FA09B0F0BD00BFAB
:1027A0000080024000180240000802400000024081
:1027B00038B50446FFF766FE20B105462369214679
:1027C000984700B938BD284608F040FDFAE70000F8
:1027D00010B5044670B1732384F83030742384F844
:1027E0003130084B6361084BA3612046FFF714FFAB
:1027F000002010BD054B40F22122054905480CF090
:10280000DFFFE8E7B9D100085D250008180D0108D1
:102810002C0D01083C0D010808B504F047FE08BD69
:1028200010B5094C0022094920460CF003F808496C
:1028300020460CF023F8074920460CF050FE2046B5
:102840000CF032F810BD00BFC06E01201400002053
:1028500078000020580000200368B3F1A04F00D09A
:10286000704710B588B04FF4E053039302230493EC
:1028700000240594032306930A23079303A9104811
:1028800004F072FA0F4B5A6B42F080025A635A6B93
:1028900002F080020192019A5A6C42F480425A641A
:1028A0005B6C03F480430293029B22462146432043
:1028B00002F0A4FB432002F0D3FB08B010BD00BF20
:1028C000000002400038024008B500F57071D0F8F1
:1028D000FC030CF003F808BD08B5C1EBC10293007E
:1028E0000344D3F80822D0F8FC030CF025F808BD07
:1028F00008B5C1EBC102930003449A6CD0F8FC0305
:102900000CF060F808BD08B5D0F8FC030CF000F935
:1029100008BD10B50446C3684BB10121D4F8FC03CF
:102920000CF0E4F8D4F8FC030CF0B8F810BD00216A
:10293000F4E7000010B50446D0F8FC030CF0D9F819
:102940002268D2F8003E43F00103C2F8003E236A39
:1029500023B1034A136943F00603136110BD00BF9E
:1029600000ED00E008B5D0F8FC030CF0CBF808BD92
:1029700008B5D0F8FC030CF0DBF808BD08B5D0F8BA
:10298000FC030CF0D3F808BD08B5D0F8FC030CF03C
:10299000D1F808BD08B5D0F8FC030CF0CDF808BD9F
:1029A00003780BB10020704710B503461748C0F8F4
:1029B000FC33C3F898024FF0A04303600623436042
:1029C0000222C2600023036143618261C36103622A
:1029D0004362C362036301F0AFF880B90B4C8021FE
:1029E000204601F02EFE40220021204601F005FE87
:1029F00080220121204601F000FE002010BD4FF48E
:102A0000A6710348FFF722F9E8E700BF5C710120D7
:102A1000640D010808B5D0F8980201F00FF90228FA
:102A200005D8DFE800F005040200012000E00220E4
:102A300008BD10B51C4613462246D0F8980201F096
:102A40008DFC022805D8DFE800F005040200012013
:102A500000E0022010BD08B5D0F8980201F0BEFCDD
:102A6000022805D8DFE800F005040200012000E09C
:102A7000022008BD08B5D0F8980201F046FD0228F2
:102A800005D8DFE800F005040200012000E0022084
:102A900008BD08B5D0F8980201F078FD022805D8E5
:102AA000DFE800F005040200012000E0022008BD7C
:102AB000D0F8983211F0800F08D101F07F01C1EBFE
:102AC000C1018A00134493F8FE01704701F07F01B1
:102AD000C1EBC1018A00134493F83E00704708B56A
:102AE000D0F8980201F026FC022805D8DFE800F0B3
:102AF00005040200012000E0022008BD08B5D0F85E
:102B0000980201F0D8FC022805D8DFE800F005049F
:102B10000200012000E0022008BD08B5D0F89802AC
:102B200001F092FC022805D8DFE800F0050402005D
:102B3000012000E0022008BD08B5D0F8980201F09D
:102B4000B1FC08BD10B5044611B1012916D010BD65
:102B5000036A5BB92268D2F8003E23F00103C2F891
:102B6000003ED4F8FC030BF0CDFFF0E7FFF73EFB8F
:102B70000C4A136923F006031361EBE70268D2F8ED
:102B8000003E43F00103C2F8003ED0F8FC030BF016
:102B9000B0FF236A002BDAD0024A136943F0060320
:102BA0001361D4E700ED00E012230B80004870476A
:102BB0004000002004230B80004870475400002090
:102BC0000C230B80004870473400002008B50A46EB
:102BD00028B9054905480CF0D9FA034808BD02494F
:102BE00002480CF0D3FAF8E75C7501209C0D01084F
:102BF00010B5044C0A46214603480CF0C7FA20469B
:102C000010BD00BF5C750120900D010808B50A4693
:102C100028B9054905480CF0B9FA034808BD02492E
:102C200002480CF0B3FAF8E75C750120B40D010816
:102C300008B50A4628B9054905480CF0A7FA034823
:102C400008BD024902480CF0A1FAF8E75C750120C2
:102C5000740D010808B50A4628B9054905480CF065
:102C600095FA034808BD024902480CF08FFAF8E7CC
:102C70005C750120800D010800207047002070471E
:102C800010B5064C0022064920460CF02FFC0549E1
:102C900020460CF033FC002010BD00BFC06E0120A8
:102CA0005C7F01205C770120094BD3F89032D3F888
:102CB00014320BB10120704710B50A460146044C8E
:102CC00020460CF013FC20460CF01EFC10BD00BF8B
:102CD000C06E012038B505460988FFF7E5FF054CB1
:102CE000294620460CF00AFC20460CF027FC002068
:102CF00038BD00BFC06E0120F8B506460D46174628
:102D0000002429463046FFF7CFFF012804D1BC42FA
:102D100002D20134A4B2F4E7F8BD7047FEE7FEE743
:102D2000FEE7FEE770477047704708B502F0CBF941
:102D300008BD000008B5024804F074FA08BD00BFE1
:102D4000D43C012008B5034802F02BFD024802F0F4
:102D500028FD08BD9C330120DC33012008B5024862
:102D600002F01FFD08BD00BF1C31012008B502485C
:102D700002F017FD08BD00BF5C87012008B50248BE
:102D800000F072FF08BD00BF5C71012008B5024869
:102D900004F048FA08BD00BF383301202C4B1B68F3
:102DA00003B17047F0B587B0294B01221A60294B57
:102DB0009A6B42F001029A639B6B03F0010300934C
:102DC000009B4FF683730193022702970026039618
:102DD000032504950C24059401A91F4803F0C4FFA2
:102DE00048F233130193029703960495059401A9C1
:102DF0001A4803F0B9FF4CF203730193029703964C
:102E00000495059401A9164803F0AEFF4FF63F0361
:102E10000193029703960495059401A9114803F0C4
:102E2000A3FF28230193029703960495059401A913
:102E30000D4803F099FF0823019302970396049528
:102E4000059401A9094803F08FFF07B0F0BD00BF4A
:102E50004C2E0120003802400010024000180240B1
:102E6000000C024000140240001C02400008024016
:102E700000B583B0214B1A6C42F080521A641A6C70
:102E800002F080520092009A5A6C42F480425A64D6
:102E90005B6C03F480430193019B032002F09CF8D8
:102EA000002211466FF00B0002F0A8F80022114634
:102EB0006FF00A0002F0A2F8002211466FF009003C
:102EC00002F09CF8002211466FF0040002F096F820
:102ED000002211466FF0030002F090F80022114624
:102EE0006FF0010002F08AF8002211464FF0FF3027
:102EF00002F084F803B05DF804FB00BF0038024024
:102F00000268094B9A4200D0704782B003F5006313
:102F10001A6B42F480521A631B6B03F480530193C3
:102F2000019B02B0704700BF003002402DE9F04124
:102F300088B004460368414A934205D0404A934210
:102F400044D008B0BDE8F0813E4B1A6C42F4804298
:102F50001A641B6C03F480430193019B02260396C1
:102F60000496002505954FF00308CDF81880052735
:102F7000079703A9344803F0F7FE4FF40043039387
:102F800004960595CDF81880079703A92F4803F0FC
:102F9000EBFE2F482F4B0360456040238360C560E4
:102FA0004FF48063036145618561C5614FF440332F
:102FB0000362456204F04CF818B9254B63659C63C5
:102FC000BFE7AC212448FEF741FEF6E71D4B5A6CE3
:102FD00042F480125A645B6C03F480130293029BE8
:102FE0004FF42073039302230493002505950323D4
:102FF00006930523079303A9184803F0B5FE184864
:10300000184B03604FF06063436040238360C560EA
:103010004FF48063036145618561C5614FF44033BE
:103020000362456204F014F818B90D4B63659C63A4
:1030300087E7D6210848FEF709FEF6E7003800408A
:1030400000500140003802400020024000040240CD
:10305000D43C012070600240C40D010800140240FD
:1030600038330120A064024000B587B00368374AB6
:10307000934221D0B3F1804F31D0354A93423CD0B6
:10308000344A934244D0344A93424CD0334A934218
:1030900030D1334B5A6C42F480325A645B6C03F487
:1030A00080330593059B00221146182001F0A6FFEE
:1030B000182001F0D5FF1DE0294B5A6C42F00102A7
:1030C0005A645B6C03F001030093009B00221146DD
:1030D000182001F093FF182001F0C2FF0AE003F569
:1030E0000E331A6C42F001021A641B6C03F00103E8
:1030F0000193019B07B05DF804FB194B1A6C42F079
:1031000002021A641B6C03F002030293029BF1E7B4
:10311000134B1A6C42F008021A641B6C03F008038C
:103120000393039BE6E70E4B5A6C42F002025A648B
:103130005B6C03F002030493049B002211462D20D4
:1031400001F05CFF2D2001F08BFFD3E70000014070
:1031500000040040000C0040000401400040014019
:103160000038024070B588B00368224A934204D008
:10317000214A934224D008B070BD204B5A6C42F0D3
:1031800010025A645B6C03F010030193019B8023CF
:1031900003930226049600240594069407250795B8
:1031A00003A9174803F0E0FD4FF40073039304965E
:1031B00005940694079503A9124803F0D5FDDAE7B4
:1031C0000E4B5A6C42F020025A645B6C03F02003F1
:1031D0000293029BC02303930223049300230593CD
:1031E000032306930823079303A9074803F0BCFDB4
:1031F000C1E700BF00100140001401400038024048
:1032000000040240000002400008024008B5FFF739
:10321000C5FD08BD00B589B000220146362001F089
:10322000EDFE362001F01CFF154B1A6C42F0100227
:103230001A641B6C03F010030193019B02A903A8FD
:1032400003F0A2FA03F080FA43000E48A0FB032328
:103250009B0C013B0C480D4A026040F2E732C26011
:10326000436000230361836002F0EEFB18B101208C
:1032700009B05DF804FB044802F083FAF8E700BFE8
:103280000038024083DE1B435C87012000100040B1
:103290005079137943EA002307480B50D07893788C
:1032A0001B0443EA0063507843EA00231278134377
:1032B000024A8B50704700BF408002404480024069
:1032C000016841F218028B5843F400538B50704749
:1032D000016841F218028B5843F002038B5070478B
:1032E00070B59EB0044629B14FF40063C3604FF43B
:1032F00080438360E369002B68D14FF480630793B8
:1033000021680B68374A1A40A368E06803430798AE
:10331000034343F4007313430B6023681D680120CB
:1033200004F0CAF823681D60236840225A602368AD
:103330005D68012004F0C0F823685D602368002503
:103340009D602368DD602268936923F0BE031B043F
:103350001B0C43F08003936123689E69012004F0F5
:10336000ABF823689E612368DD612368DD69012075
:1033700004F0A2F82368DD61216841F218054B5979
:10338000194A1A40194B13434B5123685E590120C7
:1033900004F092F823685E51236803F58053144AC1
:1033A0001A60236803F580531D68012004F084F837
:1033B000236803F580531D60A369012B09D062695E
:1033C00000212046FFF764FF1EB070BD0023079365
:1033D00096E7216841F21C028858064B03438B5044
:1033E000EDE700BF0F8120FF233FDEF8040020023D
:1033F0008020C1024000010010B582B004460023C5
:1034000001930268136843F00803136003681B68A4
:103410000193012004F050F82368019A1A6002B069
:1034200010BD10B582B004460023019302681368F2
:1034300043F00403136003681B680193012004F048
:103440003BF82368019A1A6002B010BD30B583B012
:10345000054600230193026841F21804135943F40E
:103460008013135103681B590193012004F024F8C1
:103470002B68019A1A5103B030BDF0B490F8454062
:10348000012C31D0012480F84540022480F84440CA
:10349000C162002401E0F96001349C4217D2650149
:1034A0004F194FF480164E5140F2F45606FB042695
:1034B000BE60C6691EB94E5946F440064E515D1EA7
:1034C000A542E8D9651C01EB4515FD60E4E70268FB
:1034D00041F21003D150012380F84430002380F8DA
:1034E00045301846F0BC70470220FBE7F0B490F876
:1034F0004540012C2ED0012480F84540022480F85C
:1035000044408162002401E0E96001349C4214D20D
:1035100066018D194FF000478F5144F2F4566E60EA
:1035200040F2F45606FB0426AE605E1EA642EBD9BE
:10353000661C01EB4616EE60E7E7026841F20C03F9
:10354000D150012380F84430002380F845301846DC
:10355000F0BC70470220FBE790F84530012B00F0EB
:103560008580012380F84530022380F84430B1B1D2
:10357000C36A1A68002A1ADB30B440F2F45291424E
:103580001DD93B4AA2FB0142920A40F2F45404FBCB
:10359000121404B10132012A11D0002348E00123A2
:1035A00080F84430002280F84520184670471223E6
:1035B00080F84430002380F84530012070471A68B5
:1035C00042F040521A60C36AC1F30C015960C26AEA
:1035D000136843F000431360C36ADB68C362036887
:1035E00041F214029A5812F0040F08D041F214026A
:1035F00004219950026841F204030021D1500123B3
:1036000080F84430002380F84530184630BC7047BD
:10361000C46A40F2F4556560541E9C4217D0C56AD6
:103620002C6844F000442C60C46AE468C46201332E
:103630009A42D4D9C56A2C6824F040542C60002BDF
:10364000E6D1C56A2C6844F080542C60E0E7C56A76
:103650002C6844F000542C60064C04FB021404F265
:10366000F454C56AC4F30C046C60D8E702207047B8
:103670000BB002AC0CFAFFFF90F84530012B40D0A4
:10368000012380F84530022380F84430836A1A68A9
:10369000002A0EDB1A6812F4807F12D11A6812F425
:1036A000007F28D003630022426301228263DB682B
:1036B0008362012380F84430002280F845201846B8
:1036C0007047826B01328263012A12D043631A6809
:1036D000C2F30D42043AC263026B92680264DB6873
:1036E0008362012380F84430002380F84530184677
:1036F00070470363EAE7826B01328263DB688362AF
:10370000D7E702207047F8B590F84430DBB2822B3F
:1037100033D016460546822380F844300268136988
:1037200003F01C03048AE402A4B22343890101F4D8
:10373000F8641C4344F00104146103F0B7FE07462B
:1037400014F0010F10D003F0B1FEC01BB0F5803FA4
:1037500002D22B681C69F3E7012385F8443000236B
:1037600085F84530032007E02B685B699BB2336026
:10377000012385F844300020F8BD0220FCE790F8D2
:103780004430DBB2422B32D070B50546422380F87C
:1037900044300068036903F01C032C8AE402A4B2DD
:1037A0002343890101F4F8641C4344F0030492B2FA
:1037B00042612B681C6103F079FE064614F0010F8C
:1037C00010D003F073FE801BB0F5803F02D22B684F
:1037D0001C69F3E7012385F84430002385F8453060
:1037E000032003E0012385F84430002070BD02204F
:1037F0007047000070B582B000230193002800F0EC
:103800000D81044690F84430002B32D0844B5A6C22
:1038100042F480425A645B6C03F480430093009B43
:10382000804B5A6822F400025A605A68216A0A439F
:103830005A60236803F580531A6842F001021A6047
:1038400003F034FE0546236803F58052126812F037
:10385000010F13D003F02AFE401BB0F5FA7FF2D916
:10386000032584F84450002384F84530284602B0EC
:1038700070BD80F84530FEF749FFC7E71D6925F0A8
:103880001C0502F05BFF684B0344684A934256D81C
:1038900045F0080523681D614FF4004200212046D1
:1038A000FFF76DFF0546002861D140F6FF7003F079
:1038B00003FE6368002B00F0918003F0F7FD0646DD
:1038C00001AA01212046FFF71EFF03F0EFFD801B38
:1038D00041F28833984252D8019B13F0040FEFD085
:1038E0004FF4805200212046FFF749FF002852D1B3
:1038F00003F0DCFD064601AA01212046FFF703FF85
:1039000003F0D4FD801B41F2883398424BD8019BD1
:1039100013F0200FEFD001AA10212046FFF7F3FE8D
:1039200000284CD1019B13F0040F50D04FF40062DB
:10393000E26013F0020F4DD00023A3605EE03C4B29
:1039400003443C4A934202D845F00C05A2E73A4BA7
:1039500003443A4A93429DD9394B0344394A93422E
:1039600002D845F0040595E745F0100592E70121DE
:103970002046FFF7B5FC012584F8445076E7012185
:103980002046FFF7ADFC012384F84430002384F87F
:10399000453003256AE701212046FFF7A1FC0125F8
:1039A00084F8445062E701212046FFF799FC012387
:1039B00084F84430002384F84530032556E701217C
:1039C0002046FFF78DFC012584F844504EE7002285
:1039D000E260AEE74FF48043A3600FE0E268C2F319
:1039E000CF02A368C3F34F031A4300212046FFF719
:1039F000C6FE58B940F6FF7003F05EFD0021204678
:103A0000FFF76EFC012384F844302FE701212046A4
:103A1000FFF766FC012584F8445027E7012525E7D8
:103A2000003802400038014000D3CEFEBFE1E40080
:103A300040F1E9FD3F787D0100796CFCFF5962029D
:103A4000001F0AFA7FF0FA0238B590F84530012BD2
:103A50001AD00446012580F84550022380F84430EE
:103A6000FFF7CAFC2046FFF7DCFC2046FFF7EEFC20
:103A70002046FFF725FC2046FFF72AFC84F8445037
:103A8000002084F8450038BD0220FCE72DE9F0470E
:103A900082B007460D46D0F80080C146CA00521ACF
:103AA000930003441A6D596D521A5E6C964200D30E
:103AB000164606F1030A4FEA9A0A15E006F1030AD0
:103AC0004FEA9A0AEB005B1B9C003C44A16C3B7CD8
:103AD0000093B3B2EAB2404601F070F8A36C3344ED
:103AE000A364636D3344636509EB451303F5106309
:103AF0009B699BB2534512D9EB005B1B9A003A4479
:103B0000516D136D99420AD24BB15B1AC5EBC501D9
:103B10008A003A44566C9E42D0D31E46CEE73EB948
:103B20000123AB40D8F8345825EA0305C8F83458C7
:103B3000002002B0BDE8F08700287DD0F0B58BB042
:103B4000044690F8BD33A3B3032384F8BD33206843
:103B500000F0F2FD254655F8107B6E460FCD0FC6DE
:103B60000FCD0FC695E8030086E80300231D0ECB9A
:103B7000384600F09DFD0021206800F0E3FD0023A1
:103B80000E2B1BD8D900C81A82002244012082F8CB
:103B90003D0082F83C30A2F84230002082F83F001D
:103BA00050649064CA1A9100214408650133DBB265
:103BB000E6E780F8BC33FEF74FFEC5E700230E2B87
:103BC00016D8D800C11A8A002244002182F8FD11BB
:103BD00082F8FC3182F8FF11C2F80412C2F8081210
:103BE000C21A90002044C0F810120133DBB2E6E79D
:103BF000254655F8107B6E460FCD0FC60FCD0FC66C
:103C000095E8030086E80300231D0ECB384600F03C
:103C1000DFFD002384F83830012384F8BD33636A64
:103C2000012B05D0206801F056F900200BB0F0BD43
:103C3000204600F00BFDF5E70120704790F8BC33FB
:103C4000012B0ED010B50446012380F8BC33006868
:103C500001F035F9206800F069FD002084F8BC030C
:103C600010BD0220704700002DE9F04F83B00446DC
:103C70000568D5F840A0284601F06AF910B103B0F4
:103C8000BDE8F08FA8460746206801F030F900280B
:103C9000F5D0206801F02BF910F0020F04D0226853
:103CA000536903F002035361206801F020F910F416
:103CB000002640F09180206801F019F910F4802F5F
:103CC00040F03581206801F012F90028C0F2A3818C
:103CD000206801F00CF910F4006F0AD0D5F808380C
:103CE00013F0010F40F0B1812268536903F40063BF
:103CF0005361206801F0FBF810F0006F15D02268C6
:103D0000536903F00063536194F8F033002B40F0E3
:103D1000A081012184F8F01323685B6DC3F3830352
:103D2000C4F8F4332046FEF70DFF206801F0DFF8F9
:103D300010F4805F40F09181206801F0D8F810F411
:103D4000005F40F0E281206801F0D1F810F0100F20
:103D500014D02268936923F0100393612F6A07F04F
:103D60000F08C7F34343022B00F06182062B00F0DB
:103D70007F822268936943F010039361206801F009
:103D8000B6F810F0080F40F08782206801F0AFF815
:103D900010F4801F40F08982206801F0A8F810F428
:103DA000001F40F08C82206801F0A1F810F0804FD5
:103DB00040F08F82206801F09AF810F0040F3FF471
:103DC0005EAF23685D6815F0040F40F08B822268B7
:103DD00053682B43536052E7206801F08CF881460A
:103DE0003E464FE0D8F8082B12F4004F67D04FF44E
:103DF00000429A6063E0F100891B8A002244D2F8F5
:103E000004121869C0F31200091AC2F81412D2F889
:103E10000402D2F808120144C2F8081252E00199D3
:103E20002046FEF759FD03E001992046FEF754FDB8
:103E30002369012B52D01BF0080F10D0C24B9A45BA
:103E40005DD0C24B9A4502D92369012B63D020462D
:103E5000FEF73AFD08EB46130822C3F8082B1BF0C7
:103E6000100F04D008EB46131022C3F8082B1BF0E8
:103E7000200F04D008EB46132022C3F8082B01368C
:103E80004FEA5909B9F1000F3FF415AF19F0010FCE
:103E9000F5D0F3B201931946206801F03CF883464F
:103EA00010F0010FC7D008EB461303F53063012271
:103EB0009A60A64A924502D92269012A92D02269C3
:103EC000012A98D0A04A9245AED1D8F8082B12F416
:103ED000004FA4D04FF400429A60A9E7002EAAD167
:103EE000C6EBC60293002344D3F81032002BA2D1B4
:103EF00004F570720121206801F04AF89BE7D8F8B8
:103F0000083B13F4004F9CD008EB46134FF40042DB
:103F1000C3F8082B95E7D8F8083B13F4004F96D068
:103F200008EB46134FF40042C3F8082B8FE72068D4
:103F300000F0E9FF81463E462EE0F200921B93001E
:103F40002344596C9A6C0A449A6448E01AF0080FAA
:103F500004D008EB46130822C3F808291AF0100F02
:103F600004D008EB46131022C3F808291AF0400FBA
:103F700004D008EB46134022C3F808291AF0020FB8
:103F800004D008EB46130222C3F808291AF0800F68
:103F90003CD101364FEA5909B9F1000F3FF492AE16
:103FA00019F0010FF5D05FFA86FB5946206800F042
:103FB000BBFF824610F0010FC8D006F00F030121AD
:103FC00001FA03F2D8F8343823EA0203C8F8343887
:103FD00008EB4613C3F8081923698B42ADD0594644
:103FE0002046FEF785FC2369012BAFD1002EADD111
:103FF000C6EBC602930023441B6D002BA6D104F52B
:1040000070720121206800F0C3FF9FE7314620460F
:10401000FFF73CFDBDE7D5F8043823F00103C5F8F0
:10402000043894F8F033012B08D02046FEF79AFCB0
:104030002268536903F00043536149E6002184F884
:10404000F0132046FEF77EFDF2E72046FEF772FCF5
:104050004AE62046FEF76EFC67E605F50069D9F8EA
:10406000043023F00103C9F804301021206800F067
:1040700081FB14E008EB47134FF67F31C3F80819B2
:10408000D3F8002922F40012C3F80029C3F8081B52
:10409000D3F8002B22F40012C3F8002B0137636819
:1040A000BB42E7D8D9F81C3043F00113C9F81C30E3
:1040B000236BEBB1D9F8843043F00B03C9F884309B
:1040C000D9F8443043F00B03C9F84430D5F8003830
:1040D00023F4FE63C5F8003804F57072217C206873
:1040E00000F056FF2268536903F48053536123E6BE
:1040F000D9F8143043F02B03C9F81430D9F8103034
:1041000043F00B03C9F81030E0E7206800F024FF0B
:104110002268D36823F47053D360206800F02AFC2F
:10412000B0B90023E3604FF4007363612268D36881
:1041300043F41053D3602046FEF7EBFB226853692B
:1041400003F400535361FEE50A31544F0A30544FD3
:104150000323E3604023636102F0F0FA634B0344FE
:10416000634A934205D82268D36843F47053D360FE
:10417000E1E7604B0344604A934205D82268D36864
:1041800043F46053D360D6E75C4B03445C4A9342EC
:1041900005D82268D36843F45053D360CBE7594B1A
:1041A0000344594A934205D82268D36843F44053E4
:1041B000D360C0E7554B0344554A934205D8226863
:1041C000D36843F43053D360B5E7524B0344524AAB
:1041D000934205D82268D36843F42053D360AAE7FA
:1041E0004E4B03444E4A934205D82268D36843F4A9
:1041F0001053D3609FE74B4B03444B4A934205D87F
:104200002268D36843F40053D36094E7474B0344D8
:10421000474A934205D82268D36843F4E053D360F9
:1042200089E72268D36843F4C053D36083E747F635
:10423000F0731F423FF49DAD3F094FEAC80AAAEB55
:1042400008034FEA8309A144C7F30A02D9F8081208
:10425000284600F0B5FDC7F30A07D9F808323B44F9
:10426000C9F80832D9F814321F44C9F8147280E52D
:10427000082204F57071284600F0A2FDC7F30A1762
:104280004FEAC803A3EB08018A002244D2F8143293
:104290001F44C2F814726CE52046FEF734FB226816
:1042A000536903F0080353616FE5F1B22046FEF74E
:1042B00065FB2268536903F4801353616CE5F1B226
:1042C0002046FEF755FB2268536903F4001353613F
:1042D00069E52046FEF758FB2268536903F08043E6
:1042E000536167E52046FEF755FB70E5405327FF15
:1042F000FF340C00401E1BFF3F420F0000DC0BFF91
:104300007F4F1200808CF9FE1FD6130060B6E5FEC9
:104310005FE3160000D3CEFE3F771B00C05BB3FE09
:10432000BF91210000CA91FE1F753800E05459FE6C
:10433000DF9C410090F8BC33012B0DD010B5044632
:10434000012380F8BC3380F83810006800F0A7FD26
:10435000002084F8BC0310BD02207047F8B511F0AE
:10436000800F27D101F00F05EE00771BBC00274618
:1043700004F5FC74044404340744002587F8FD5117
:1043800001F00F012170A260E370627802B1E18058
:10439000022B1ED090F8BC33012B1DD00546012303
:1043A00080F8BC332146006800F0F8FA002085F858
:1043B000BC03F8BD01F00F06F500AF1BBC0027469B
:1043C0003834044404343E460644012586F83D5002
:1043D000D6E700232371DDE70220EAE738B511F0C4
:1043E000800F20D101F00F04E200151BAB001D4629
:1043F00003F5FC73034404330544002285F8FD21D2
:1044000001F00F01197090F8BC23012A1AD004465C
:10441000012280F8BC231946006800F007FB002049
:1044200084F8BC0338BD01F00F04E200151BAB009B
:104430001D463833034404332C460444012284F8D7
:104440003D20DDE70220EDE770B501F00F05EE003D
:10445000711B8C0004F5FC740444211D761BB40010
:104460000444C4F80822C4F810320023C4F81432FB
:1044700084F8FD3184F8FC510369012B06D065B93D
:10448000DAB2006800F01AFB002070BDC5EBC5066B
:10449000B4000444C4F80C22F1E7DAB2006800F07A
:1044A000A1FBF1E701F00F01C1EBC1018B00184442
:1044B000B0F81402704770B501F00F05EE00711BE3
:1044C0008C0038340444211D761BB4000444A264DB
:1044D000236500236365012384F83D3084F83C5054
:1044E0000369012B06D05DB9DAB2006800F0E6FA84
:1044F000002070BDC5EBC506B4000444E264F2E7D9
:10450000DAB2006800F06EFBF2E738B501F00F0593
:1045100043689D4236D811F0800F20D1CA00541A4A
:10452000A3001C4603F5FC730344043322460244F3
:10453000002182F8FD1101229A701D7090F8BC23B1
:10454000012A21D00446012280F8BC2319460068C4
:1045500000F04AFC7DB1002084F8BC0338BDEA00BD
:10456000511B8B00194638330344043301440122A4
:1045700081F83D20DFE704F57072217C206800F0AF
:1045800007FDE8E70120E9E70220E7E710B501F0C1
:104590000F0443689C422CD811F0800F1DD1E3001A
:1045A0001A1B91000A4601F5FC71014404310244D2
:1045B000002382F8FD3100238B700C7090F8BC331F
:1045C000012B18D00446012380F8BC33006800F0AA
:1045D00038FC002084F8BC0310BDE3001A1B9100D6
:1045E0000A463831014404310244012382F83D3047
:1045F000E1E70120F0E70220EEE730B40468606AEA
:1046000029B940EA0240A062002030BC70470D4644
:10461000A36A00EB13400023691E8B4209D203F109
:10462000400104EB8101496800EB11400133DBB22A
:10463000F2E740EA024005F13F0104EB81014860E6
:10464000E2E70368596200207047000002460368F1
:104650000121C0F8F813002082F8F0039A6942F0B3
:1046600000629A61596D024A0A435A65704700BF59
:1046700003000010002301330C4A934211D8026951
:10468000002AF8DA036943F00103036100230133D0
:10469000064A934207D8026912F0010FF7D10020B1
:1046A0007047032070470320704700BF400D030090
:1046B00084B010B5044603A880E80E00089B012BC7
:1046C0001ED1A36B23F48033A363E268164B13401F
:1046D000E360E36823F44013E3600F9B012B0AD0EF
:1046E0002046FFF7C7FF069B012B14D00020BDE832
:1046F000104004B07047E36843F48013E360EFE7D1
:10470000E36843F04003E3602046FFF7B3FF4FF454
:104710008033A363E7E7A36843F00603A360A368BD
:1047200043F02003A360E1E7BFFFBDFF836843F0D0
:104730000103836000207047836823F001038360D6
:104740000020704708B5C36823F0C043C360012947
:1047500009D069B9C36843F08043C360322002F0D6
:10476000ABFE002008BDC36843F00053C360F5E70B
:104770000120F7E7890141F02001016100230133A5
:10478000054A934205D8026912F0200FF7D10020A4
:1047900070470320704700BF400D030010230361E2
:1047A00000230133054A934205D8026912F0100F25
:1047B000F7D1002070470320704700BF400D030071
:1047C000D0F800381943C0F80018002070470000E6
:1047D00084B070B5044605A880E80E002546002385
:1047E0000E2B07D803F1400204EB82020021516036
:1047F0000133F5E7A36B43F40013A3630F9B5BB98D
:10480000A36B23F40013A363236843F040032360E6
:10481000236843F0800323600023C4F8003E04F5BE
:104820000066D4F80038C4F800380A9B012B08D081
:10483000032B17D1079B83B900212046FFF7C0FF48
:1048400014E0079B23B900212046FFF7B9FF0DE0D4
:1048500001212046FFF7B4FF08E001212046FFF7C1
:10486000AFFF03E003212046FFF7AAFF10212046F7
:10487000FFF780FF2046FFF791FF0023336173614C
:10488000F3610AE0C3B94FF00060C2F800090022EA
:104890000A614FF67F328A600133059A9A4210D935
:1048A00005EB431202F51061D2F800090028E9DB9C
:1048B0000020C2F80009EAE74FF09040C2F8000972
:1048C000E5E700230AE0C3B94FF00060C2F8000B2F
:1048D00000220A614FF67F328A600133059A9A42BC
:1048E00010D905EB431202F53061D2F8000B002815
:1048F000E9DB0020C2F8000BEAE74FF09040C2F875
:10490000000BE5E7336923F480733361089B012BC7
:104910001BD00022A2616FF0804262611BB9A369C3
:1049200043F01003A361A2690E4B1343A3610B9BD9
:104930001BB1A36943F00803A3610F9B012B0BD0AC
:104940000020BDE8704004B07047074A3263316B05
:10495000064A0A433263DCE7A269054B1343A361AD
:10496000EEE700BF00383C8000018000030001003A
:1049700004000040D0F8083813F0060309D0062BD5
:1049800018BF022B07D0042B01D000207047022053
:1049900070470020704703207047000070B40B7808
:1049A0004A78012A20D0D0F81C2803F00F060124F1
:1049B000B44042EA0442C0F81C2800EB4310D0F88F
:1049C000003B13F4004F0CD1D0F8002B8B68C3F3DD
:1049D0000A03C97843EA81431343134A1A43C0F8D0
:1049E000002B002070BC7047D0F81C4803F00F0665
:1049F000B24092B22243C0F81C2800EB4310D0F81A
:104A0000002912F4004FECD1D0F800498A68C2F3B3
:104A10000A02C97842EA814242EA835323430249A7
:104A20001943C0F80019DCE70080001070B40B785F
:104A30004A78012A1FD0D0F83C5803F00F06012411
:104A400004FA06F625EA0645C0F83C58D0F81C588A
:104A5000097801F00F018C4025EA0444C0F81C4895
:104A600000EB4310D0F8002B124B1340C0F8003B72
:104A7000002070BC7047D0F83C6803F00F0402FAC5
:104A800004F4A4B226EA0404C0F83C48D0F81C4858
:104A9000097801F00F018A4092B224EA0202C0F8BC
:104AA0001C2800EB4310D0F80039034A1A40C0F824
:104AB0000029DDE70078F3EF007833EC70B40B7871
:104AC0004C78012C24D000EB431000F530631D69B5
:104AD000384C2C401C611D69374C2C401C614C69C2
:104AE0000CB18C684C611C6944F400241C611C6985
:104AF0008D68C5F312052C431C61012A57D0D0F8EC
:104B0000003B43F00443C0F8003B002070BC7047FA
:104B10004C6914BB00EB4314D4F81069264D3540A2
:104B2000C4F81059D4F8105945F40025C4F81059A8
:104B3000D4F810691F4D3540C4F81059012A28D007
:104B40004A695AB3D0F83428097801F00F040121DA
:104B5000A1400A43C0F8342820E000EB431404F5D8
:104B600010642669134D354025612669124D354084
:104B700025614E698D68AE4200D94D61256945F4C5
:104B80000025256125694E69C6F312063543256166
:104B9000D4E700EB43120969C2F8141900EB431083
:104BA000D0F8002942F00442C0F80029ADE7CA68F5
:104BB0005A61A4E70000F8FFFFFF07E070B49DF81A
:104BC0000C4064B903339E08B44208D200EB0233B0
:104BD00003F5805351F8045B1D600134F4E70020B5
:104BE00070BC7047F0B583B00B784C78012C29D09D
:104BF00000EB431303F5306426696E4D35402561A3
:104C000026696D4D354025614D69002D40F0A68027
:104C100025698E68C6F3120635432561256945F47A
:104C200000252561012A00F0AE80CA78012A00F033
:104C3000AD80D3F8002B42F00442C3F8002B0020D3
:104C400003B0F0BD4C6934BB00EB4314D4F81069D9
:104C5000594D3540C4F81059D4F8105945F4002581
:104C6000C4F81059D4F81069524D3540C4F81059A1
:104C7000012A42D0CC78012C44D04C69002C41D080
:104C8000D0F834480D7805F00F060125B5402C43C7
:104C9000C0F8344836E000EB4314D4F81069454DB1
:104CA0003540C4F81059D4F81069434D3540C4F864
:104CB0001059D4F810694D698F683D44013DB5FB2A
:104CC000F7F53E4F07EAC5453543C4F81059D4F807
:104CD00010594E69C6F312063543C4F8105904F54D
:104CE0001064CD78012DC3D1256925F0C04525611B
:104CF000256945F000552561BAE700EB43140D69BD
:104D0000C4F81459CC78012C11D000EB4313D3F81C
:104D1000004944F00444C3F80049CB78012B8ED1FC
:104D200000928B8A0A78C968FFF748FF87E7D0F8B6
:104D3000084814F4807F08D100EB4315D5F80049EA
:104D400044F00054C5F80049DFE700EB4315D5F8FF
:104D5000004944F08054C5F80049D6E78E683544D0
:104D6000013DB5FBF6F52669144F07EAC5473E43FA
:104D7000266127698E68ADB206FB05F5C5F31205FD
:104D80003D4325614EE7CA6862614EE7D0F80828C6
:104D900012F4807F06D1D3F8002B42F00052C3F802
:104DA000002B46E7D3F8002B42F08052C3F8002BCB
:104DB0003FE700BF0000F8FFFFFF07E00000F81F1B
:104DC00003329208002393420CD210B400F58054B1
:104DD000246841F8044B01339342F7D308465DF849
:104DE000044B7047084670470B784A78012A14D064
:104DF00000EB4310D0F8002B002A06DB2BB1D0F8D3
:104E0000003B23F08043C0F8003BD0F8003B43F464
:104E10000013C0F8003B0020704700EB4310D0F8AF
:104E20000029002A06DB2BB1D0F8003923F080439B
:104E3000C0F80039D0F8003943F40013C0F8003945
:104E4000E9E70B784A78012A0ED000EB4310D0F83E
:104E5000003B23F40013C0F8003BCB78023BDBB2ED
:104E6000012B15D90020704700EB4310D0F8003912
:104E700023F40013C0F80039CB78023BDBB2012BDE
:104E8000F0D8D0F8003943F08053C0F80039E9E792
:104E9000D0F8003B43F08053C0F8003BE2E7D0F885
:104EA000003823F4FE63C0F80038D0F80038090158
:104EB00001F4FE610B43C0F800380020704708B5CC
:104EC000D0F8043823F00203C0F80438032002F0BD
:104ED000F3FA002008BD08B5D0F8043843F0020307
:104EE000C0F80438032002F0E7FA002008BD426948
:104EF000806910407047D0F8183800F50060C0692C
:104F00001840000C7047D0F8183800F50060C069F0
:104F1000184080B2704700EB4111D1F8082B00F522
:104F2000006040691040704710B4D0F81048D0F8C5
:104F3000343801F00F02D340DB01DBB2234300EB36
:104F4000411000F51060806818405DF8044B704710
:104F5000406900F001007047D0F800290B4B134066
:104F6000C0F8003900F500639A6802F00602042ACE
:104F700005D05A6842F480725A6000207047D0F819
:104F8000002942F00302C0F80029F2E700F8FFFF11
:104F900010B40024C0F8104BD0F8104B44F4002497
:104FA000C0F8104BD0F8104B44F01804C0F8104B68
:104FB000D0F8104B44F0C044C0F8104B012903D086
:104FC00000205DF8044B7047C0F8142B4FF080238D
:104FD000C0F8003BF4E700000649CB6823F4E06327
:104FE0001B041B0C000200F4E0600343024A1A4356
:104FF000CA60704700ED00E00000FA0530B4154BC0
:10500000DB68C3F30223C3F10704042C28BF042484
:105010001D1D062D01D9033B00E000234FF0FF3595
:1050200005FA04F421EA0401994005FA03F322EA9F
:1050300003031943002805DB0901C9B2064B1954C3
:1050400030BC704700F00F000901C9B2034B19547E
:10505000F6E700BF00ED00E000E400E014ED00E042
:1050600000F01F02400901239340024A42F8203019
:10507000704700BF00E100E00138B0F1807F0AD244
:10508000064B5860064AF02182F8231000209860F1
:1050900007221A6070470120704700BF10E000E04F
:1050A00000ED00E0042805D0054A136823F004034E
:1050B00013607047024A136843F00403136070479B
:1050C00010E000E0704708B5FFF7FCFF08BD0000E6
:1050D000002838D010B50446437F1BB30223637702
:1050E00023791BBB2368194A5A612268936823F00D
:1050F00018039360637913BB23684FF0FF321A6182
:105100002268936823F0600361690B43936022680F
:10511000936823F08003A1690B43936001236377B5
:10512000002010BD0377FDF7EBFED7E7E268A1682A
:10513000204600F00DF80028DCD00120F1E72368BC
:1051400022691A61DCE70120704700BFB71DC10466
:1051500010B41F2300E0234621FA03F414F0010FDA
:1051600003D15C1E002BF6D12346102A13D0182A37
:105170000DD0082A13D00368596101688B6823F0A9
:1051800018031A438A6000205DF8044B7047062B11
:10519000F1D90120F8E7072BEDD90120F4E70F2B17
:1051A000E9D90120F0E7000030B40B68012B18D0DA
:1051B0000368194A1A404B688C682343CC68234320
:1051C0000C6923434C6923438C692343CC692343F3
:1051D0000C6A2343496A0B4313430360002030BC2D
:1051E0007047046824F4F844CB690A6A1A434B6A8E
:1051F0001A4322434368084C1C404B688D682B437C
:10520000CD682B430D692B434D692B4389690B43B3
:10521000234302604360E1E70080FFFF30B4012ACE
:1052200021D0826802F070420B68013B4C68013C5F
:1052300043EA04138C68013C43EA0423CC68013C34
:1052400043EA04330C69013C43EA04434C69013CE2
:1052500043EA04538969013943EA016313438360D4
:10526000002030BC70478368114C1C40CA68551E32
:105270004B695A1E120542EA05322243C46804F003
:1052800070440B68013B4D68013D43EA05138D688E
:10529000013D43EA05230D69013D43EA0543896960
:1052A000013943EA016323438260C360D8E700BF4A
:1052B000FF0F0FFFE0B138B504460D4690F82C30D3
:1052C0008BB1022384F82C30214651F8040BFFF7F0
:1052D0006BFF626829462068FFF7A0FF012384F86E
:1052E0002C30002038BD80F82D30FDF78FFFE8E727
:1052F00001207047F8B505460F4616461C462B6838
:105300009B683B40B34238D0B4F1FF3FF7D02CB19B
:1053100002F0CCF8069BC01AA042F0D32A6853686A
:1053200023F0E00353606B68B3F5827F0BD0AB6A68
:10533000B3F5005F14D0012385F85D30002385F8B4
:105340005C3003201AE0AB68B3F5806F18BFB3F58B
:10535000004FECD12A68136823F040031360E6E79E
:105360002A68136823F400531B041B0C13602A687B
:10537000136843F400531360DDE70020F8BDF0B577
:1053800083B007460D4614461E4602E0B6F1FF3FC5
:1053900010D13A6893682B40A34241D0B5F5C06F55
:1053A00008BF002CF2D1137BDBB28DF807309DF8DB
:1053B0000730EBE72EB102F079F8089BC01AB04233
:1053C000E7D33A68536823F0E00353607B68B3F592
:1053D000827F0BD0BB6AB3F5005F14D0012387F83E
:1053E0005D30002387F85C3003201AE0BB68B3F51A
:1053F000806F18BFB3F5004FECD13A68136823F003
:1054000040031360E6E73A68136823F400531B0473
:105410001B0C13603A68136843F400531360DDE714
:10542000002003B0F0BD70B582B004460D461646AC
:1054300000920B4600224FF4C051FFF7A0FFB8B90D
:1054400000962B46002280212046FFF753FFB8B973
:1054500000962B4600224FF4C0612046FFF78FFFD5
:10546000034650B1236E43F020032366032304E078
:10547000236E43F0200323660323184602B070BD59
:10548000236E43F0200323660323F6E7002858D059
:1054900010B504460023836290F85D30002B45D0A0
:1054A000022384F85D302268136823F04003136000
:1054B000E368B3F5E06F3ED90022B3F5706F18BF13
:1054C000B3F5E06F01D00021A162216B21B9B3F5E2
:1054D000E06F33D9022323636368A1680B4321691A
:1054E0000B4361690B43A16901F400710B43E1694E
:1054F0000B43216A0B43A06A216803430B60638B53
:1055000003F00403616A0B43616B0B43E1680B43D7
:10551000216813434B602268D36923F40063D3618D
:1055200000202066012384F85D3010BD80F85C30D7
:10553000FDF7FCFCB4E74FF48052BEE70123236380
:10554000CAE701207047000090F85C30012B7CD046
:1055500010B50446012380F85C3090F85D00C0B2BD
:1055600098426DD1B2FA82F35B09002908BF01238A
:10557000002B66D1032384F85D3000232366A163EA
:10558000A287E28723642365E364A4F84430A4F887
:105590004630A368B3F5004F35D0636D2C4A1A64CA
:1055A000636D2C4ADA63636D2B4ADA64636D002203
:1055B0001A652268536823F480435360E368B3F5A7
:1055C000E06F04D8636D9B69B3F5005F21D022685A
:1055D000E38F0C32A16B606D01F0A0FD23681A68A7
:1055E00012F0400F03D11A6842F040021A6022689C
:1055F000536843F0200353602268536843F002036A
:10560000536000201DE02268136843F48043136058
:10561000C3E7E38F13F0010F08D12268536823F426
:1056200080435360E38F5B08E387D0E722685368C9
:1056300043F480435360E38F5B080133E387C6E79D
:105640000220002384F85C3010BD0220704700BFA8
:1056500087560008B55600089356000810B5044652
:10566000406D08B101F094FDA06D08B101F090FD0E
:105670002268536823F003035360012384F85D30EC
:10568000002010BD704708B5806BFFF7FBFF08BD19
:10569000704708B5806B0268536823F003035360BA
:1056A000036E43F010030366012380F85D30FFF7BB
:1056B000EFFF08BD30B583B00546846B01F0F6FE00
:1056C0002B681B6813F4807F23D12268536823F072
:1056D000200353602268536823F00203536002469C
:1056E00064212046FFF79FFE18B1236E43F020038C
:1056F0002366A36833B901932368DA6801929B6833
:105700000193019B0023E387012384F85D30236E1E
:1057100023B92046FCF7BCF803B030BD2046FFF7A4
:10572000B7FFF9E710B4036A046A24F001040462C5
:10573000846924F0F00444EA021223F00A030B43C4
:10574000826103625DF8044B704710B4036A23F072
:10575000100303628469036A24F4704444EA023249
:1057600023F0A00343EA0113826103625DF8044B56
:105770007047836823F0700341F00701194381608B
:1057800070470268D36843F00103D360026813686E
:1057900043F0010313600020704770477047704763
:1057A000704710B5044603681A6912F0020F11D051
:1057B000DA6812F0020F0DD06FF002021A610123B5
:1057C000037703689B6913F0030F79D0FFF7E6FFB7
:1057D0000023237723681A6912F0040F12D0DA68C5
:1057E00012F0040F0ED06FF004021A610223237727
:1057F00023689B6913F4407F68D02046FFF7CEFFF3
:105800000023237723681A6912F0080F12D0DA6890
:1058100012F0080F0ED06FF008021A6104232377EC
:105820002368DB6913F0030F57D02046FFF7B6FF5C
:105830000023237723681A6912F0100F12D0DA6858
:1058400012F0100F0ED06FF010021A6108232377A8
:105850002368DB6913F4407F46D02046FFF79EFFA4
:105860000023237723681A6912F0010F03D0DA6846
:1058700012F0010F3FD123681A6912F0800F03D094
:10588000DA6812F0800F3DD123681A6912F4807F24
:1058900003D0DA6812F0800F3BD123681A6912F046
:1058A000400F03D0DA6812F0400F39D123681A692B
:1058B00012F0200F03D0DA6812F0200F37D110BD9C
:1058C000FFF76BFF2046FFF76AFF81E72046FFF7EF
:1058D00064FF2046FFF763FF92E72046FFF75DFF76
:1058E0002046FFF75CFFA3E72046FFF756FF204660
:1058F000FFF755FFB4E76FF001021A612046FBF78E
:10590000C9FFB8E76FF080021A61204600F079F90C
:10591000BAE76FF080021A61204600F072F9BCE726
:105920006FF040021A612046FFF73AFFBEE76FF0C2
:1059300020021A61204600F063F9C0E770B40368E2
:105940003A4CA04214BF00240124B0F1804F14BF90
:10595000224644F00102AAB9354DA84214BF0025E1
:105960000125344EB0420DD065B905F1804505F5ED
:105970008235A84214BF0025012506F50066B04215
:1059800000D01DB123F070034D682B43002A33D1A2
:10599000274A904214BF00220122264DA8422BD054
:1059A00052BB02F1804202F58232904214BF0022C3
:1059B000012205F50065A8421ED0EAB91E4A9042B0
:1059C00014BF0022012205F59A35A84214D09AB9D5
:1059D0001A4A904214BF0022012205F50065A84230
:1059E0000AD04AB9164A904214BF00220122A5F5F6
:1059F0009635A84200D01AB123F44073CA68134305
:105A000023F080034A69134303608A68C2620A680C
:105A100082620C4B984214BF234644F001030BB141
:105A20000B6903630123436170BC704700000140B0
:105A300000080040000400400044014000180040FD
:105A40000020004000040140B0B110B5044690F8B9
:105A50003D3063B1022384F83D30214651F8040BF8
:105A6000FFF76CFF012384F83D30002010BD80F863
:105A70003C30FDF7F9FAEDE70120704710B4846877
:105A800024F47F4442EA03230B43234383605DF8FD
:105A9000044B704790F83C30012B7DD010B5044684
:105AA000012380F83C30022380F83D300268906882
:105AB0003A4B034093600B68402B59D010D9702BA0
:105AC0003ED01FD8502B49D0602B32D1CA684968CC
:105AD0002068FFF73AFE60212068FFF74AFE28E0C1
